{
  "abi": [
    {
      "inputs": [
        {
          "internalType": "address",
          "name": "owner",
          "type": "address"
        }
      ],
      "stateMutability": "nonpayable",
      "type": "constructor"
    },
    {
      "anonymous": false,
      "inputs": [
        {
          "indexed": false,
          "internalType": "uint8",
          "name": "version",
          "type": "uint8"
        }
      ],
      "name": "Initialized",
      "type": "event"
    },
    {
      "anonymous": false,
      "inputs": [
        {
          "indexed": true,
          "internalType": "address",
          "name": "previousOwner",
          "type": "address"
        },
        {
          "indexed": true,
          "internalType": "address",
          "name": "newOwner",
          "type": "address"
        }
      ],
      "name": "OwnershipTransferred",
      "type": "event"
    },
    {
      "anonymous": false,
      "inputs": [
        {
          "indexed": false,
          "internalType": "uint256",
          "name": "root",
          "type": "uint256"
        }
      ],
      "name": "RegisteredRoot",
      "type": "event"
    },
    {
      "anonymous": false,
      "inputs": [
        {
          "indexed": false,
          "internalType": "uint256",
          "name": "root",
          "type": "uint256"
        }
      ],
      "name": "UnregisteredRoot",
      "type": "event"
    },
    {
      "inputs": [],
      "name": "IMPLEMENTATION_VERSION",
      "outputs": [
        {
          "internalType": "uint8",
          "name": "",
          "type": "uint8"
        }
      ],
      "stateMutability": "view",
      "type": "function"
    },
    {
      "inputs": [
        {
          "internalType": "uint256",
          "name": "",
          "type": "uint256"
        }
      ],
      "name": "_roots",
      "outputs": [
        {
          "internalType": "bool",
          "name": "",
          "type": "bool"
        }
      ],
      "stateMutability": "view",
      "type": "function"
    },
    {
      "inputs": [
        {
          "internalType": "address",
          "name": "ownerAddress",
          "type": "address"
        }
      ],
      "name": "initialize",
      "outputs": [],
      "stateMutability": "nonpayable",
      "type": "function"
    },
    {
      "inputs": [
        {
          "internalType": "uint256",
          "name": "root",
          "type": "uint256"
        }
      ],
      "name": "isRootAvailable",
      "outputs": [
        {
          "internalType": "bool",
          "name": "",
          "type": "bool"
        }
      ],
      "stateMutability": "view",
      "type": "function"
    },
    {
      "inputs": [],
      "name": "owner",
      "outputs": [
        {
          "internalType": "address",
          "name": "",
          "type": "address"
        }
      ],
      "stateMutability": "view",
      "type": "function"
    },
    {
      "inputs": [
        {
          "internalType": "uint256",
          "name": "root",
          "type": "uint256"
        }
      ],
      "name": "registerRoot",
      "outputs": [],
      "stateMutability": "nonpayable",
      "type": "function"
    },
    {
      "inputs": [],
      "name": "renounceOwnership",
      "outputs": [],
      "stateMutability": "nonpayable",
      "type": "function"
    },
    {
      "inputs": [
        {
          "internalType": "address",
          "name": "newOwner",
          "type": "address"
        }
      ],
      "name": "transferOwnership",
      "outputs": [],
      "stateMutability": "nonpayable",
      "type": "function"
    },
    {
      "inputs": [
        {
          "internalType": "uint256",
          "name": "root",
          "type": "uint256"
        }
      ],
      "name": "unregisterRoot",
      "outputs": [],
      "stateMutability": "nonpayable",
      "type": "function"
    }
  ],
  "bytecode": {
    "object": "0x608060405234801561001057600080fd5b506040516108a43803806108a483398101604081905261002f916101be565b61003833610047565b610041816100a2565b506101ee565b600080546001600160a01b038381166201000081810262010000600160b01b0319851617855560405193049190911692909183917f8be0079c531659141344cd1fd0a4f28419497f9722a3daafe3b4186f6b6457e091a35050565b600054600190610100900460ff161580156100c4575060005460ff8083169116105b61012b5760405162461bcd60e51b815260206004820152602e60248201527f496e697469616c697a61626c653a20636f6e747261637420697320616c72656160448201526d191e481a5b9a5d1a585b1a5e995960921b606482015260840160405180910390fd5b6000805461ffff191660ff8316176101001781556101576000546201000090046001600160a01b031690565b6001600160a01b0316148061016b5750303b155b156101795761017982610047565b6000805461ff001916905560405160ff821681527f7f26b83ff96e1f2b6a682f133852f6798a09c465da95921460cefb38474024989060200160405180910390a15050565b6000602082840312156101d057600080fd5b81516001600160a01b03811681146101e757600080fd5b9392505050565b6106a7806101fd6000396000f3fe608060405234801561001057600080fd5b50600436106100a35760003560e01c80638da5cb5b11610076578063c4d66de81161005b578063c4d66de81461016e578063f2fde38b14610181578063fbacef5f1461019457600080fd5b80638da5cb5b14610117578063900402e11461015b57600080fd5b8063194441cd146100a8578063626350fb146100e0578063715018a6146100f5578063754b377c146100fd575b600080fd5b6100cb6100b636600461061b565b60016020526000908152604090205460ff1681565b60405190151581526020015b60405180910390f35b6100f36100ee36600461061b565b6101b7565b005b6100f36101cb565b610105600181565b60405160ff90911681526020016100d7565b60005462010000900473ffffffffffffffffffffffffffffffffffffffff1660405173ffffffffffffffffffffffffffffffffffffffff90911681526020016100d7565b6100f361016936600461061b565b6101df565b6100f361017c366004610634565b6101f0565b6100f361018f366004610634565b61038b565b6100cb6101a236600461061b565b60009081526001602052604090205460ff1690565b6101bf61043f565b6101c8816104c7565b50565b6101d361043f565b6101dd6000610537565b565b6101e761043f565b6101c8816105b5565b600054600190610100900460ff16158015610212575060005460ff8083169116105b6102a3576040517f08c379a000000000000000000000000000000000000000000000000000000000815260206004820152602e60248201527f496e697469616c697a61626c653a20636f6e747261637420697320616c72656160448201527f647920696e697469616c697a656400000000000000000000000000000000000060648201526084015b60405180910390fd5b600080547fffffffffffffffffffffffffffffffffffffffffffffffffffffffffffff00001660ff8316176101001781556102fa60005473ffffffffffffffffffffffffffffffffffffffff620100009091041690565b73ffffffffffffffffffffffffffffffffffffffff16148061031b5750303b155b156103295761032982610537565b600080547fffffffffffffffffffffffffffffffffffffffffffffffffffffffffffff00ff16905560405160ff821681527f7f26b83ff96e1f2b6a682f133852f6798a09c465da95921460cefb38474024989060200160405180910390a15050565b61039361043f565b73ffffffffffffffffffffffffffffffffffffffff8116610436576040517f08c379a000000000000000000000000000000000000000000000000000000000815260206004820152602660248201527f4f776e61626c653a206e6577206f776e657220697320746865207a65726f206160448201527f6464726573730000000000000000000000000000000000000000000000000000606482015260840161029a565b6101c881610537565b60005473ffffffffffffffffffffffffffffffffffffffff620100009091041633146101dd576040517f08c379a000000000000000000000000000000000000000000000000000000000815260206004820181905260248201527f4f776e61626c653a2063616c6c6572206973206e6f7420746865206f776e6572604482015260640161029a565b60008181526001602081815260409283902080547fffffffffffffffffffffffffffffffffffffffffffffffffffffffffffffff001690921790915590518281527fe51e1c952cd15d86c7e62a1c30d0219e8ac6c3f4a694d954ef14d393d12d11e091015b60405180910390a150565b6000805473ffffffffffffffffffffffffffffffffffffffff838116620100008181027fffffffffffffffffffff0000000000000000000000000000000000000000ffff851617855560405193049190911692909183917f8be0079c531659141344cd1fd0a4f28419497f9722a3daafe3b4186f6b6457e091a35050565b6000818152600160205260409081902080547fffffffffffffffffffffffffffffffffffffffffffffffffffffffffffffff00169055517fab9280351ddbb17e0349823e22b8ac97cf96376d800ce86bdf9e16920ca29cc99061052c9083815260200190565b60006020828403121561062d57600080fd5b5035919050565b60006020828403121561064657600080fd5b813573ffffffffffffffffffffffffffffffffffffffff8116811461066a57600080fd5b939250505056fea2646970667358221220e6c93fd7b717ef8e00c3afbe37d2df477abd067626b56382009e7ab3fc06028f64736f6c63430008110033",
    "linkReferences": {}
  },
  "methodIdentifiers": {
    "IMPLEMENTATION_VERSION()": "754b377c",
    "_roots(uint256)": "194441cd",
    "initialize(address)": "c4d66de8",
    "isRootAvailable(uint256)": "fbacef5f",
    "owner()": "8da5cb5b",
    "registerRoot(uint256)": "626350fb",
    "renounceOwnership()": "715018a6",
    "transferOwnership(address)": "f2fde38b",
    "unregisterRoot(uint256)": "900402e1"
  },
  "id": 37
}